{
  "_format": "hh-sol-artifact-1",
  "contractName": "Fare1",
  "sourceName": "contracts/FareCalculator.sol",
  "abi": [
    {
      "inputs": [
        {
          "internalType": "uint256",
          "name": "start_",
          "type": "uint256"
        },
        {
          "internalType": "uint256",
          "name": "stop_",
          "type": "uint256"
        },
        {
          "internalType": "uint256",
          "name": "",
          "type": "uint256"
        },
        {
          "internalType": "address",
          "name": "",
          "type": "address"
        },
        {
          "internalType": "address",
          "name": "",
          "type": "address"
        }
      ],
      "name": "evaluate",
      "outputs": [
        {
          "internalType": "uint256",
          "name": "",
          "type": "uint256"
        }
      ],
      "stateMutability": "pure",
      "type": "function"
    }
  ],
  "bytecode": "0x608060405234801561001057600080fd5b50610250806100206000396000f3fe608060405234801561001057600080fd5b506004361061002b5760003560e01c8063abb0e06c14610030575b600080fd5b61004a60048036038101906100459190610112565b610060565b604051610057919061019c565b60405180910390f35b6000858561006e91906101e6565b905095945050505050565b600080fd5b6000819050919050565b6100918161007e565b811461009c57600080fd5b50565b6000813590506100ae81610088565b92915050565b600073ffffffffffffffffffffffffffffffffffffffff82169050919050565b60006100df826100b4565b9050919050565b6100ef816100d4565b81146100fa57600080fd5b50565b60008135905061010c816100e6565b92915050565b600080600080600060a0868803121561012e5761012d610079565b5b600061013c8882890161009f565b955050602061014d8882890161009f565b945050604061015e8882890161009f565b935050606061016f888289016100fd565b9250506080610180888289016100fd565b9150509295509295909350565b6101968161007e565b82525050565b60006020820190506101b1600083018461018d565b92915050565b7f4e487b7100000000000000000000000000000000000000000000000000000000600052601160045260246000fd5b60006101f18261007e565b91506101fc8361007e565b9250828203905081811115610214576102136101b7565b5b9291505056fea2646970667358221220a6a0b9f2fd391709ad4acd827167fa6d3f5dcc5a6530c249f44ea48b2b03357f64736f6c63430008110033",
  "linkReferences": {},
  "deployedLinkReferences": {}
}