{
  "_format": "hh-sol-artifact-1",
  "contractName": "AccessControl",
  "sourceName": "contracts/AccessControl.sol",
  "abi": [
    {
      "inputs": [
        {
          "internalType": "address",
          "name": "hardwareAddress_",
          "type": "address"
        },
        {
          "internalType": "address",
          "name": "tokenAddress_",
          "type": "address"
        },
        {
          "internalType": "bool",
          "name": "onchainTime_",
          "type": "bool"
        }
      ],
      "stateMutability": "nonpayable",
      "type": "constructor"
    },
    {
      "anonymous": false,
      "inputs": [
        {
          "indexed": true,
          "internalType": "address",
          "name": "userAdrdress_",
          "type": "address"
        }
      ],
      "name": "DebtPayed",
      "type": "event"
    },
    {
      "anonymous": false,
      "inputs": [
        {
          "indexed": true,
          "internalType": "address",
          "name": "fareAddress_",
          "type": "address"
        }
      ],
      "name": "NewFare",
      "type": "event"
    },
    {
      "anonymous": false,
      "inputs": [
        {
          "indexed": true,
          "internalType": "address",
          "name": "previousOwner",
          "type": "address"
        },
        {
          "indexed": true,
          "internalType": "address",
          "name": "newOwner",
          "type": "address"
        }
      ],
      "name": "OwnershipTransferred",
      "type": "event"
    },
    {
      "anonymous": false,
      "inputs": [
        {
          "indexed": true,
          "internalType": "address",
          "name": "userAddress_",
          "type": "address"
        },
        {
          "indexed": true,
          "internalType": "uint256",
          "name": "debt",
          "type": "uint256"
        }
      ],
      "name": "UserBlocked",
      "type": "event"
    },
    {
      "inputs": [
        {
          "internalType": "address",
          "name": "fareAddress_",
          "type": "address"
        }
      ],
      "name": "addFare",
      "outputs": [],
      "stateMutability": "nonpayable",
      "type": "function"
    },
    {
      "inputs": [
        {
          "internalType": "address",
          "name": "userAddress_",
          "type": "address"
        }
      ],
      "name": "addUser",
      "outputs": [],
      "stateMutability": "nonpayable",
      "type": "function"
    },
    {
      "inputs": [
        {
          "internalType": "address",
          "name": "userAdrdress_",
          "type": "address"
        }
      ],
      "name": "blockUser",
      "outputs": [],
      "stateMutability": "nonpayable",
      "type": "function"
    },
    {
      "inputs": [
        {
          "internalType": "address",
          "name": "userAdress_",
          "type": "address"
        },
        {
          "internalType": "uint256",
          "name": "timestamp_",
          "type": "uint256"
        }
      ],
      "name": "enter",
      "outputs": [],
      "stateMutability": "nonpayable",
      "type": "function"
    },
    {
      "inputs": [
        {
          "internalType": "address",
          "name": "userAdress_",
          "type": "address"
        }
      ],
      "name": "enter",
      "outputs": [],
      "stateMutability": "nonpayable",
      "type": "function"
    },
    {
      "inputs": [
        {
          "internalType": "address",
          "name": "userAddress_",
          "type": "address"
        }
      ],
      "name": "exit",
      "outputs": [],
      "stateMutability": "nonpayable",
      "type": "function"
    },
    {
      "inputs": [
        {
          "internalType": "address",
          "name": "userAdress_",
          "type": "address"
        },
        {
          "internalType": "uint256",
          "name": "timestamp_",
          "type": "uint256"
        }
      ],
      "name": "exit",
      "outputs": [],
      "stateMutability": "nonpayable",
      "type": "function"
    },
    {
      "inputs": [
        {
          "internalType": "uint256",
          "name": "",
          "type": "uint256"
        }
      ],
      "name": "fare",
      "outputs": [
        {
          "internalType": "contract FareCalculator",
          "name": "",
          "type": "address"
        }
      ],
      "stateMutability": "view",
      "type": "function"
    },
    {
      "inputs": [
        {
          "internalType": "uint256",
          "name": "",
          "type": "uint256"
        }
      ],
      "name": "fareTimeStamp",
      "outputs": [
        {
          "internalType": "uint256",
          "name": "",
          "type": "uint256"
        }
      ],
      "stateMutability": "view",
      "type": "function"
    },
    {
      "inputs": [
        {
          "internalType": "address",
          "name": "userAddress_",
          "type": "address"
        }
      ],
      "name": "getUserRegisters",
      "outputs": [
        {
          "internalType": "uint256[]",
          "name": "",
          "type": "uint256[]"
        }
      ],
      "stateMutability": "view",
      "type": "function"
    },
    {
      "inputs": [],
      "name": "hardwareAddress",
      "outputs": [
        {
          "internalType": "address",
          "name": "",
          "type": "address"
        }
      ],
      "stateMutability": "view",
      "type": "function"
    },
    {
      "inputs": [
        {
          "internalType": "address",
          "name": "userAddress_",
          "type": "address"
        }
      ],
      "name": "isInside",
      "outputs": [
        {
          "internalType": "bool",
          "name": "",
          "type": "bool"
        }
      ],
      "stateMutability": "view",
      "type": "function"
    },
    {
      "inputs": [
        {
          "internalType": "address",
          "name": "userAddress_",
          "type": "address"
        },
        {
          "internalType": "uint256",
          "name": "timestamp_",
          "type": "uint256"
        }
      ],
      "name": "isInside",
      "outputs": [
        {
          "internalType": "bool",
          "name": "",
          "type": "bool"
        }
      ],
      "stateMutability": "view",
      "type": "function"
    },
    {
      "inputs": [],
      "name": "nUsers",
      "outputs": [
        {
          "internalType": "uint256",
          "name": "",
          "type": "uint256"
        }
      ],
      "stateMutability": "view",
      "type": "function"
    },
    {
      "inputs": [
        {
          "internalType": "uint256",
          "name": "timestamp_",
          "type": "uint256"
        }
      ],
      "name": "occupancy",
      "outputs": [
        {
          "internalType": "uint256",
          "name": "",
          "type": "uint256"
        }
      ],
      "stateMutability": "view",
      "type": "function"
    },
    {
      "inputs": [],
      "name": "occupancy",
      "outputs": [
        {
          "internalType": "uint256",
          "name": "",
          "type": "uint256"
        }
      ],
      "stateMutability": "view",
      "type": "function"
    },
    {
      "inputs": [
        {
          "internalType": "uint256",
          "name": "start_",
          "type": "uint256"
        },
        {
          "internalType": "uint256",
          "name": "end_",
          "type": "uint256"
        }
      ],
      "name": "occupancy",
      "outputs": [
        {
          "internalType": "uint256",
          "name": "",
          "type": "uint256"
        }
      ],
      "stateMutability": "view",
      "type": "function"
    },
    {
      "inputs": [],
      "name": "onchainTime",
      "outputs": [
        {
          "internalType": "bool",
          "name": "",
          "type": "bool"
        }
      ],
      "stateMutability": "view",
      "type": "function"
    },
    {
      "inputs": [],
      "name": "owner",
      "outputs": [
        {
          "internalType": "address",
          "name": "",
          "type": "address"
        }
      ],
      "stateMutability": "view",
      "type": "function"
    },
    {
      "inputs": [],
      "name": "payDebt",
      "outputs": [],
      "stateMutability": "nonpayable",
      "type": "function"
    },
    {
      "inputs": [
        {
          "internalType": "address",
          "name": "userAdress_",
          "type": "address"
        }
      ],
      "name": "register",
      "outputs": [],
      "stateMutability": "nonpayable",
      "type": "function"
    },
    {
      "inputs": [
        {
          "internalType": "address",
          "name": "userAdress_",
          "type": "address"
        },
        {
          "internalType": "uint256",
          "name": "timestamp_",
          "type": "uint256"
        }
      ],
      "name": "register",
      "outputs": [],
      "stateMutability": "nonpayable",
      "type": "function"
    },
    {
      "inputs": [],
      "name": "renounceOwnership",
      "outputs": [],
      "stateMutability": "nonpayable",
      "type": "function"
    },
    {
      "inputs": [
        {
          "internalType": "uint256",
          "name": "newAutentificator_",
          "type": "uint256"
        }
      ],
      "name": "setAutentificator",
      "outputs": [],
      "stateMutability": "nonpayable",
      "type": "function"
    },
    {
      "inputs": [],
      "name": "token",
      "outputs": [
        {
          "internalType": "contract AccessControlToken",
          "name": "",
          "type": "address"
        }
      ],
      "stateMutability": "view",
      "type": "function"
    },
    {
      "inputs": [
        {
          "internalType": "address",
          "name": "newOwner",
          "type": "address"
        }
      ],
      "name": "transferOwnership",
      "outputs": [],
      "stateMutability": "nonpayable",
      "type": "function"
    },
    {
      "inputs": [
        {
          "internalType": "address",
          "name": "userAdrdress_",
          "type": "address"
        }
      ],
      "name": "unblockUser",
      "outputs": [],
      "stateMutability": "nonpayable",
      "type": "function"
    },
    {
      "inputs": [
        {
          "internalType": "uint256",
          "name": "",
          "type": "uint256"
        }
      ],
      "name": "user",
      "outputs": [
        {
          "internalType": "enum AccessControl.Status",
          "name": "status",
          "type": "uint8"
        },
        {
          "internalType": "uint256",
          "name": "autentificator",
          "type": "uint256"
        },
        {
          "internalType": "bool",
          "name": "isInside",
          "type": "bool"
        },
        {
          "internalType": "uint256",
          "name": "debt",
          "type": "uint256"
        }
      ],
      "stateMutability": "view",
      "type": "function"
    },
    {
      "inputs": [
        {
          "internalType": "address",
          "name": "",
          "type": "address"
        }
      ],
      "name": "userID",
      "outputs": [
        {
          "internalType": "uint256",
          "name": "",
          "type": "uint256"
        }
      ],
      "stateMutability": "view",
      "type": "function"
    }
  ],
  "bytecode": "0x60806040523480156200001157600080fd5b506040516200385838038062003858833981810160405281019062000037919062000277565b620000576200004b6200010460201b60201c565b6200010c60201b60201c565b82600760006101000a81548173ffffffffffffffffffffffffffffffffffffffff021916908373ffffffffffffffffffffffffffffffffffffffff16021790555080600760146101000a81548160ff02191690831515021790555081600460006101000a81548173ffffffffffffffffffffffffffffffffffffffff021916908373ffffffffffffffffffffffffffffffffffffffff1602179055506000600381905550505050620002d3565b600033905090565b60008060009054906101000a900473ffffffffffffffffffffffffffffffffffffffff169050816000806101000a81548173ffffffffffffffffffffffffffffffffffffffff021916908373ffffffffffffffffffffffffffffffffffffffff1602179055508173ffffffffffffffffffffffffffffffffffffffff168173ffffffffffffffffffffffffffffffffffffffff167f8be0079c531659141344cd1fd0a4f28419497f9722a3daafe3b4186f6b6457e060405160405180910390a35050565b600080fd5b600073ffffffffffffffffffffffffffffffffffffffff82169050919050565b60006200020282620001d5565b9050919050565b6200021481620001f5565b81146200022057600080fd5b50565b600081519050620002348162000209565b92915050565b60008115159050919050565b62000251816200023a565b81146200025d57600080fd5b50565b600081519050620002718162000246565b92915050565b600080600060608486031215620002935762000292620001d0565b5b6000620002a38682870162000223565b9350506020620002b68682870162000223565b9250506040620002c98682870162000260565b9150509250925092565b61357580620002e36000396000f3fe608060405234801561001057600080fd5b50600436106101cf5760003560e01c80636d705ebb11610104578063b6bc4bad116100a2578063eda7794e11610071578063eda7794e14610519578063ef693bed14610549578063f2fde38b14610565578063fc0c546a14610581576101cf565b8063b6bc4bad1461046d578063d014c01f1461049d578063df419350146104b9578063e936d9b6146104e9576101cf565b8063895449d5116100de578063895449d5146103f95780638da5cb5b146104175780639a2041bf14610435578063b42652e914610451576101cf565b80636d705ebb146103b7578063715018a6146103d35780637e348b7d146103dd576101cf565b80633da0132511610171578063421b2d8b1161014b578063421b2d8b1461031c578063421ce89b146103385780634420e48614610368578063553275be14610384576101cf565b80633da01325146102c45780633e19e9e0146102e05780633f728455146102fe576101cf565b806326a7600d116101ad57806326a7600d1461022a578063305628af1461025a57806339d319e51461028a5780633bdf8369146102a6576101cf565b80630b7b1329146101d457806312ee5057146101f05780631a913542146101fa575b600080fd5b6101ee60048036038101906101e99190612821565b61059f565b005b6101f8610679565b005b610214600480360381019061020f9190612821565b610913565b6040516102219190612869565b60405180910390f35b610244600480360381019061023f9190612821565b610a1d565b604051610251919061294c565b60405180910390f35b610274600480360381019061026f919061299a565b610b68565b60405161028191906129d6565b60405180910390f35b6102a4600480360381019061029f9190612821565b610bb6565b005b6102ae610d5b565b6040516102bb9190612a00565b60405180910390f35b6102de60048036038101906102d99190612821565b610d81565b005b6102e8610f98565b6040516102f59190612869565b60405180910390f35b610306610fab565b60405161031391906129d6565b60405180910390f35b61033660048036038101906103319190612821565b610ff7565b005b610352600480360381019061034d9190612a1b565b611181565b60405161035f91906129d6565b60405180910390f35b610382600480360381019061037d9190612821565b6111c9565b005b61039e6004803603810190610399919061299a565b61122c565b6040516103ae9493929190612ad2565b60405180910390f35b6103d160048036038101906103cc9190612b17565b611286565b005b6103db6112ea565b005b6103f760048036038101906103f29190612b17565b6112fe565b005b610401611446565b60405161040e91906129d6565b60405180910390f35b61041f61144c565b60405161042c9190612a00565b60405180910390f35b61044f600480360381019061044a919061299a565b611475565b005b61046b60048036038101906104669190612821565b611621565b005b61048760048036038101906104829190612b17565b611767565b6040516104949190612869565b60405180910390f35b6104b760048036038101906104b29190612821565b611849565b005b6104d360048036038101906104ce919061299a565b611990565b6040516104e09190612bb6565b60405180910390f35b61050360048036038101906104fe919061299a565b6119cf565b60405161051091906129d6565b60405180910390f35b610533600480360381019061052e9190612821565b6119f3565b60405161054091906129d6565b60405180910390f35b610563600480360381019061055e9190612b17565b611a0b565b005b61057f600480360381019061057a9190612821565b611b52565b005b610589611bd5565b6040516105969190612bf2565b60405180910390f35b6105a7611bfb565b60064290806001815401808255809150506001900390600052602060002001600090919091909150556005819080600181540180825580915050600190039060005260206000200160009091909190916101000a81548173ffffffffffffffffffffffffffffffffffffffff021916908373ffffffffffffffffffffffffffffffffffffffff1602179055508073ffffffffffffffffffffffffffffffffffffffff167f7b3d6578175180dc481df4d00e708332d71786e9a44d81b29d2d48174f17c18960405160405180910390a250565b336000600160008373ffffffffffffffffffffffffffffffffffffffff1673ffffffffffffffffffffffffffffffffffffffff16815260200190815260200160002054116106fc576040517f08c379a00000000000000000000000000000000000000000000000000000000081526004016106f390612c6a565b60405180910390fd5b6000600260018060003373ffffffffffffffffffffffffffffffffffffffff1673ffffffffffffffffffffffffffffffffffffffff1681526020019081526020016000205461074b9190612cb9565b8154811061075c5761075b612ced565b5b90600052602060002090600502016004015490506000600460009054906101000a900473ffffffffffffffffffffffffffffffffffffffff1673ffffffffffffffffffffffffffffffffffffffff166323b872dd3330856040518463ffffffff1660e01b81526004016107d193929190612d1c565b6020604051808303816000875af11580156107f0573d6000803e3d6000fd5b505050506040513d601f19601f820116820180604052508101906108149190612d7f565b905080610856576040517f08c379a000000000000000000000000000000000000000000000000000000000815260040161084d90612df8565b60405180910390fd5b6000600260018060003373ffffffffffffffffffffffffffffffffffffffff1673ffffffffffffffffffffffffffffffffffffffff168152602001908152602001600020546108a59190612cb9565b815481106108b6576108b5612ced565b5b9060005260206000209060050201600401819055503373ffffffffffffffffffffffffffffffffffffffff167f7cd5f45a99992acf8a3c4f46fbc2636e3cd3b0221f95b6ecc35b685887855cf760405160405180910390a2505050565b6000816000600160008373ffffffffffffffffffffffffffffffffffffffff1673ffffffffffffffffffffffffffffffffffffffff1681526020019081526020016000205411610998576040517f08c379a000000000000000000000000000000000000000000000000000000000815260040161098f90612c6a565b60405180910390fd5b600260018060003373ffffffffffffffffffffffffffffffffffffffff1673ffffffffffffffffffffffffffffffffffffffff168152602001908152602001600020546109e59190612cb9565b815481106109f6576109f5612ced565b5b906000526020600020906005020160030160009054906101000a900460ff16915050919050565b6060816000600160008373ffffffffffffffffffffffffffffffffffffffff1673ffffffffffffffffffffffffffffffffffffffff1681526020019081526020016000205411610aa2576040517f08c379a0000000000000000000000000000000000000000000000000000000008152600401610a9990612c6a565b60405180910390fd5b600260018060008673ffffffffffffffffffffffffffffffffffffffff1673ffffffffffffffffffffffffffffffffffffffff16815260200190815260200160002054610aef9190612cb9565b81548110610b0057610aff612ced565b5b9060005260206000209060050201600101805480602002602001604051908101604052809291908181526020018280548015610b5b57602002820191906000526020600020905b815481526020019060010190808311610b47575b5050505050915050919050565b6000806000905060005b600354811015610bac57610b868185611c79565b15610b9b57600182610b989190612e18565b91505b80610ba590612e4c565b9050610b72565b5080915050919050565b610bbe611bfb565b806000600160008373ffffffffffffffffffffffffffffffffffffffff1673ffffffffffffffffffffffffffffffffffffffff1681526020019081526020016000205411610c41576040517f08c379a0000000000000000000000000000000000000000000000000000000008152600401610c3890612c6a565b60405180910390fd5b6000600260018060008673ffffffffffffffffffffffffffffffffffffffff1673ffffffffffffffffffffffffffffffffffffffff16815260200190815260200160002054610c909190612cb9565b81548110610ca157610ca0612ced565b5b9060005260206000209060050201905060006001811115610cc557610cc4612a5b565b5b8160000160009054906101000a900460ff166001811115610ce957610ce8612a5b565b5b14610d29576040517f08c379a0000000000000000000000000000000000000000000000000000000008152600401610d2090612ee0565b60405180910390fd5b60018160000160006101000a81548160ff02191690836001811115610d5157610d50612a5b565b5b0217905550505050565b600760009054906101000a900473ffffffffffffffffffffffffffffffffffffffff1681565b610d89611bfb565b806000600160008373ffffffffffffffffffffffffffffffffffffffff1673ffffffffffffffffffffffffffffffffffffffff16815260200190815260200160002054118015610e785750600180811115610de757610de6612a5b565b5b600260018060008573ffffffffffffffffffffffffffffffffffffffff1673ffffffffffffffffffffffffffffffffffffffff16815260200190815260200160002054610e349190612cb9565b81548110610e4557610e44612ced565b5b906000526020600020906005020160000160009054906101000a900460ff166001811115610e7657610e75612a5b565b5b145b610eb7576040517f08c379a0000000000000000000000000000000000000000000000000000000008152600401610eae90612f4c565b60405180910390fd5b6000600260018060008673ffffffffffffffffffffffffffffffffffffffff1673ffffffffffffffffffffffffffffffffffffffff16815260200190815260200160002054610f069190612cb9565b81548110610f1757610f16612ced565b5b906000526020600020906005020160000160006101000a81548160ff02191690836001811115610f4a57610f49612a5b565b5b021790555060008273ffffffffffffffffffffffffffffffffffffffff167f1105cbf79ba9aec674e68bafc67545b3e180703742c1ad6af4ab85fd0d5c4cdd60405160405180910390a35050565b600760149054906101000a900460ff1681565b6000806000905060005b600354811015610fef57610fc98142611c79565b15610fde57600182610fdb9190612e18565b91505b80610fe890612e4c565b9050610fb5565b508091505090565b610fff611bfb565b6000600160008373ffffffffffffffffffffffffffffffffffffffff1673ffffffffffffffffffffffffffffffffffffffff1681526020019081526020016000205414611081576040517f08c379a000000000000000000000000000000000000000000000000000000000815260040161107890612fb8565b60405180910390fd5b6002600181600181540180825580915050039060005260206000209050506001600360008282546110b29190612e18565b92505081905550600354600160008373ffffffffffffffffffffffffffffffffffffffff1673ffffffffffffffffffffffffffffffffffffffff168152602001908152602001600020819055506000600260016003546111129190612cb9565b8154811061112357611122612ced565b5b9060005260206000209060050201905060018160000160006101000a81548160ff0219169083600181111561115b5761115a612a5b565b5b021790555060008160030160006101000a81548160ff0219169083151502179055505050565b6000806000905060005b6003548110156111be576111a0818686611dad565b826111ab9190612e18565b9150806111b790612e4c565b905061118b565b508091505092915050565b60011515600760149054906101000a900460ff1615151461121f576040517f08c379a00000000000000000000000000000000000000000000000000000000081526004016112169061304a565b60405180910390fd5b6112298142611f89565b50565b6002818154811061123c57600080fd5b90600052602060002090600502016000915090508060000160009054906101000a900460ff16908060020154908060030160009054906101000a900460ff16908060040154905084565b60001515600760149054906101000a900460ff161515146112dc576040517f08c379a00000000000000000000000000000000000000000000000000000000081526004016112d39061304a565b60405180910390fd5b6112e68282611f89565b5050565b6112f2611bfb565b6112fc60006122b3565b565b60001515600760149054906101000a900460ff16151514611354576040517f08c379a000000000000000000000000000000000000000000000000000000000815260040161134b9061304a565b60405180910390fd5b816000600260018060008573ffffffffffffffffffffffffffffffffffffffff1673ffffffffffffffffffffffffffffffffffffffff168152602001908152602001600020546113a49190612cb9565b815481106113b5576113b4612ced565b5b906000526020600020906005020190506000600282600101805490506113db9190613099565b1480156113f757508060030160009054906101000a900460ff16155b611436576040517f08c379a000000000000000000000000000000000000000000000000000000000815260040161142d90613116565b60405180910390fd5b6114408484611f89565b50505050565b60035481565b60008060009054906101000a900473ffffffffffffffffffffffffffffffffffffffff16905090565b336000600160008373ffffffffffffffffffffffffffffffffffffffff1673ffffffffffffffffffffffffffffffffffffffff1681526020019081526020016000205411801561156457506001808111156114d3576114d2612a5b565b5b600260018060008573ffffffffffffffffffffffffffffffffffffffff1673ffffffffffffffffffffffffffffffffffffffff168152602001908152602001600020546115209190612cb9565b8154811061153157611530612ced565b5b906000526020600020906005020160000160009054906101000a900460ff16600181111561156257611561612a5b565b5b145b6115a3576040517f08c379a000000000000000000000000000000000000000000000000000000000815260040161159a90612f4c565b60405180910390fd5b6000600260018060003373ffffffffffffffffffffffffffffffffffffffff1673ffffffffffffffffffffffffffffffffffffffff168152602001908152602001600020546115f29190612cb9565b8154811061160357611602612ced565b5b90600052602060002090600502019050828160020181905550505050565b60011515600760149054906101000a900460ff16151514611677576040517f08c379a000000000000000000000000000000000000000000000000000000000815260040161166e9061304a565b60405180910390fd5b806000600260018060008573ffffffffffffffffffffffffffffffffffffffff1673ffffffffffffffffffffffffffffffffffffffff168152602001908152602001600020546116c79190612cb9565b815481106116d8576116d7612ced565b5b906000526020600020906005020190506001600282600101805490506116fe9190613099565b14801561171957508060030160009054906101000a900460ff165b611758576040517f08c379a000000000000000000000000000000000000000000000000000000000815260040161174f90613182565b60405180910390fd5b6117628342611f89565b505050565b6000826000600160008373ffffffffffffffffffffffffffffffffffffffff1673ffffffffffffffffffffffffffffffffffffffff16815260200190815260200160002054116117ec576040517f08c379a00000000000000000000000000000000000000000000000000000000081526004016117e390612c6a565b60405180910390fd5b61184060018060008773ffffffffffffffffffffffffffffffffffffffff1673ffffffffffffffffffffffffffffffffffffffff1681526020019081526020016000205461183a9190612cb9565b84611c79565b91505092915050565b60011515600760149054906101000a900460ff1615151461189f576040517f08c379a00000000000000000000000000000000000000000000000000000000081526004016118969061304a565b60405180910390fd5b806000600260018060008573ffffffffffffffffffffffffffffffffffffffff1673ffffffffffffffffffffffffffffffffffffffff168152602001908152602001600020546118ef9190612cb9565b81548110611900576118ff612ced565b5b906000526020600020906005020190506000600282600101805490506119269190613099565b14801561194257508060030160009054906101000a900460ff16155b611981576040517f08c379a000000000000000000000000000000000000000000000000000000000815260040161197890613116565b60405180910390fd5b61198b8342611f89565b505050565b600581815481106119a057600080fd5b906000526020600020016000915054906101000a900473ffffffffffffffffffffffffffffffffffffffff1681565b600681815481106119df57600080fd5b906000526020600020016000915090505481565b60016020528060005260406000206000915090505481565b60001515600760149054906101000a900460ff16151514611a61576040517f08c379a0000000000000000000000000000000000000000000000000000000008152600401611a589061304a565b60405180910390fd5b816000600260018060008573ffffffffffffffffffffffffffffffffffffffff1673ffffffffffffffffffffffffffffffffffffffff16815260200190815260200160002054611ab19190612cb9565b81548110611ac257611ac1612ced565b5b90600052602060002090600502019050600160028260010180549050611ae89190613099565b148015611b0357508060030160009054906101000a900460ff165b611b42576040517f08c379a0000000000000000000000000000000000000000000000000000000008152600401611b3990613182565b60405180910390fd5b611b4c8484611f89565b50505050565b611b5a611bfb565b600073ffffffffffffffffffffffffffffffffffffffff168173ffffffffffffffffffffffffffffffffffffffff1603611bc9576040517f08c379a0000000000000000000000000000000000000000000000000000000008152600401611bc090613214565b60405180910390fd5b611bd2816122b3565b50565b600460009054906101000a900473ffffffffffffffffffffffffffffffffffffffff1681565b611c03612377565b73ffffffffffffffffffffffffffffffffffffffff16611c2161144c565b73ffffffffffffffffffffffffffffffffffffffff1614611c77576040517f08c379a0000000000000000000000000000000000000000000000000000000008152600401611c6e90613280565b60405180910390fd5b565b6000808310158015611c8c575060035483105b611ccb576040517f08c379a0000000000000000000000000000000000000000000000000000000008152600401611cc2906132ec565b60405180910390fd5b60008060028581548110611ce257611ce1612ced565b5b9060005260206000209060050201905060008160010180549050905060005b81811015611da057826001018181548110611d1f57611d1e612ced565b5b90600052602060002001548610611d8c57600193508260010180549050600182611d499190612e18565b108015611d81575082600101600182611d629190612e18565b81548110611d7357611d72612ced565b5b906000526020600020015486115b15611d8b57600093505b5b600281611d999190612e18565b9050611d01565b5082935050505092915050565b6000808410158015611dc0575060035484105b611dff576040517f08c379a0000000000000000000000000000000000000000000000000000000008152600401611df6906132ec565b60405180910390fd5b818310611e41576040517f08c379a0000000000000000000000000000000000000000000000000000000008152600401611e3890613358565b60405180910390fd5b60008383611e4f9190612cb9565b905060008060028781548110611e6857611e67612ced565b5b9060005260206000209060050201905060008160010180549050905060008060005b83811015611f5657846001018181548110611ea857611ea7612ced565b5b90600052602060002001549250828a1115611ec1578992505b8460010180549050600182611ed69190612e18565b1015611f105784600101600182611eed9190612e18565b81548110611efe57611efd612ced565b5b90600052602060002001549150611f14565b4291505b81891015611f20578891505b82821115611f42578282611f349190612cb9565b86611f3f9190612e18565b95505b600281611f4f9190612e18565b9050611e8a565b5085600287611f659190613378565b86611f709190612e18565b611f7a9190613378565b96505050505050509392505050565b600760009054906101000a900473ffffffffffffffffffffffffffffffffffffffff1673ffffffffffffffffffffffffffffffffffffffff163373ffffffffffffffffffffffffffffffffffffffff1614612019576040517f08c379a0000000000000000000000000000000000000000000000000000000008152600401612010906133f5565b60405180910390fd5b816000600160008373ffffffffffffffffffffffffffffffffffffffff1673ffffffffffffffffffffffffffffffffffffffff16815260200190815260200160002054118015612108575060018081111561207757612076612a5b565b5b600260018060008573ffffffffffffffffffffffffffffffffffffffff1673ffffffffffffffffffffffffffffffffffffffff168152602001908152602001600020546120c49190612cb9565b815481106120d5576120d4612ced565b5b906000526020600020906005020160000160009054906101000a900460ff16600181111561210657612105612a5b565b5b145b612147576040517f08c379a000000000000000000000000000000000000000000000000000000000815260040161213e90612f4c565b60405180910390fd5b6000600260018060008773ffffffffffffffffffffffffffffffffffffffff1673ffffffffffffffffffffffffffffffffffffffff168152602001908152602001600020546121969190612cb9565b815481106121a7576121a6612ced565b5b906000526020600020906005020190508060030160009054906101000a900460ff16158160030160006101000a81548160ff021916908315150217905550806001018390806001815401808255809150506001900390600052602060002001600090919091909150558060030160009054906101000a900460ff166122ad576000816001018054905090506000826001016002836122459190612cb9565b8154811061225657612255612ced565b5b906000526020600020015490506000836001016001846122769190612cb9565b8154811061228757612286612ced565b5b906000526020600020015490506122a98783836122a48686611181565b61237f565b5050505b50505050565b60008060009054906101000a900473ffffffffffffffffffffffffffffffffffffffff169050816000806101000a81548173ffffffffffffffffffffffffffffffffffffffff021916908373ffffffffffffffffffffffffffffffffffffffff1602179055508173ffffffffffffffffffffffffffffffffffffffff168173ffffffffffffffffffffffffffffffffffffffff167f8be0079c531659141344cd1fd0a4f28419497f9722a3daafe3b4186f6b6457e060405160405180910390a35050565b600033905090565b600060058054905090506000805b828110156124ae57856006826001866123a69190612cb9565b6123b09190612cb9565b815481106123c1576123c0612ced565b5b9060005260206000200154101561249b57600581815481106123e6576123e5612ced565b5b9060005260206000200160009054906101000a900473ffffffffffffffffffffffffffffffffffffffff1673ffffffffffffffffffffffffffffffffffffffff1663abb0e06c8787878b306040518663ffffffff1660e01b8152600401612451959493929190613415565b6020604051808303816000875af1158015612470573d6000803e3d6000fd5b505050506040513d601f19601f82011682018060405250810190612494919061347d565b91506124ae565b80806124a690612e4c565b91505061238d565b5060008111156127b6576000600260018060008a73ffffffffffffffffffffffffffffffffffffffff1673ffffffffffffffffffffffffffffffffffffffff168152602001908152602001600020546125079190612cb9565b8154811061251857612517612ced565b5b906000526020600020906005020190508181600401600082825461253c9190612e18565b9250508190555060008160000160006101000a81548160ff0219169083600181111561256b5761256a612a5b565b5b02179055506000600460009054906101000a900473ffffffffffffffffffffffffffffffffffffffff1673ffffffffffffffffffffffffffffffffffffffff1663dd62ed3e33306040518363ffffffff1660e01b81526004016125cf9291906134aa565b602060405180830381865afa1580156125ec573d6000803e3d6000fd5b505050506040513d601f19601f82011682018060405250810190612610919061347d565b90508281101561266d5780836126269190612cb9565b8873ffffffffffffffffffffffffffffffffffffffff167f1105cbf79ba9aec674e68bafc67545b3e180703742c1ad6af4ab85fd0d5c4cdd60405160405180910390a38092505b60008311156127b3576000600460009054906101000a900473ffffffffffffffffffffffffffffffffffffffff1673ffffffffffffffffffffffffffffffffffffffff166323b872dd8a30876040518463ffffffff1660e01b81526004016126d793929190612d1c565b6020604051808303816000875af11580156126f6573d6000803e3d6000fd5b505050506040513d601f19601f8201168201806040525081019061271a9190612d7f565b90508061275c576040517f08c379a00000000000000000000000000000000000000000000000000000000081526004016127539061351f565b60405180910390fd5b838360040160008282546127709190612cb9565b9250508190555060008360040154036127b15760018360000160006101000a81548160ff021916908360018111156127ab576127aa612a5b565b5b02179055505b505b50505b505050505050565b600080fd5b600073ffffffffffffffffffffffffffffffffffffffff82169050919050565b60006127ee826127c3565b9050919050565b6127fe816127e3565b811461280957600080fd5b50565b60008135905061281b816127f5565b92915050565b600060208284031215612837576128366127be565b5b60006128458482850161280c565b91505092915050565b60008115159050919050565b6128638161284e565b82525050565b600060208201905061287e600083018461285a565b92915050565b600081519050919050565b600082825260208201905092915050565b6000819050602082019050919050565b6000819050919050565b6128c3816128b0565b82525050565b60006128d583836128ba565b60208301905092915050565b6000602082019050919050565b60006128f982612884565b612903818561288f565b935061290e836128a0565b8060005b8381101561293f57815161292688826128c9565b9750612931836128e1565b925050600181019050612912565b5085935050505092915050565b6000602082019050818103600083015261296681846128ee565b905092915050565b612977816128b0565b811461298257600080fd5b50565b6000813590506129948161296e565b92915050565b6000602082840312156129b0576129af6127be565b5b60006129be84828501612985565b91505092915050565b6129d0816128b0565b82525050565b60006020820190506129eb60008301846129c7565b92915050565b6129fa816127e3565b82525050565b6000602082019050612a1560008301846129f1565b92915050565b60008060408385031215612a3257612a316127be565b5b6000612a4085828601612985565b9250506020612a5185828601612985565b9150509250929050565b7f4e487b7100000000000000000000000000000000000000000000000000000000600052602160045260246000fd5b60028110612a9b57612a9a612a5b565b5b50565b6000819050612aac82612a8a565b919050565b6000612abc82612a9e565b9050919050565b612acc81612ab1565b82525050565b6000608082019050612ae76000830187612ac3565b612af460208301866129c7565b612b01604083018561285a565b612b0e60608301846129c7565b95945050505050565b60008060408385031215612b2e57612b2d6127be565b5b6000612b3c8582860161280c565b9250506020612b4d85828601612985565b9150509250929050565b6000819050919050565b6000612b7c612b77612b72846127c3565b612b57565b6127c3565b9050919050565b6000612b8e82612b61565b9050919050565b6000612ba082612b83565b9050919050565b612bb081612b95565b82525050565b6000602082019050612bcb6000830184612ba7565b92915050565b6000612bdc82612b83565b9050919050565b612bec81612bd1565b82525050565b6000602082019050612c076000830184612be3565b92915050565b600082825260208201905092915050565b7f546869732075736572206973206e6f7420726567697374657265640000000000600082015250565b6000612c54601b83612c0d565b9150612c5f82612c1e565b602082019050919050565b60006020820190508181036000830152612c8381612c47565b9050919050565b7f4e487b7100000000000000000000000000000000000000000000000000000000600052601160045260246000fd5b6000612cc4826128b0565b9150612ccf836128b0565b9250828203905081811115612ce757612ce6612c8a565b5b92915050565b7f4e487b7100000000000000000000000000000000000000000000000000000000600052603260045260246000fd5b6000606082019050612d3160008301866129f1565b612d3e60208301856129f1565b612d4b60408301846129c7565b949350505050565b612d5c8161284e565b8114612d6757600080fd5b50565b600081519050612d7981612d53565b92915050565b600060208284031215612d9557612d946127be565b5b6000612da384828501612d6a565b91505092915050565b7f4661696c656420746f2070617920646562740000000000000000000000000000600082015250565b6000612de2601283612c0d565b9150612ded82612dac565b602082019050919050565b60006020820190508181036000830152612e1181612dd5565b9050919050565b6000612e23826128b0565b9150612e2e836128b0565b9250828201905080821115612e4657612e45612c8a565b5b92915050565b6000612e57826128b0565b91507fffffffffffffffffffffffffffffffffffffffffffffffffffffffffffffffff8203612e8957612e88612c8a565b5b600182019050919050565b7f5468652075736572206973206e6f7420626c6f636b6564000000000000000000600082015250565b6000612eca601783612c0d565b9150612ed582612e94565b602082019050919050565b60006020820190508181036000830152612ef981612ebd565b9050919050565b7f546869732075736572206973206e6f7420616374697661746564000000000000600082015250565b6000612f36601a83612c0d565b9150612f4182612f00565b602082019050919050565b60006020820190508181036000830152612f6581612f29565b9050919050565b7f5573657220616c72656164792061646465640000000000000000000000000000600082015250565b6000612fa2601283612c0d565b9150612fad82612f6c565b602082019050919050565b60006020820190508181036000830152612fd181612f95565b9050919050565b7f546865206f6e636861696e54696d652076616c75652073686f756c642062652060008201527f7472756500000000000000000000000000000000000000000000000000000000602082015250565b6000613034602483612c0d565b915061303f82612fd8565b604082019050919050565b6000602082019050818103600083015261306381613027565b9050919050565b7f4e487b7100000000000000000000000000000000000000000000000000000000600052601260045260246000fd5b60006130a4826128b0565b91506130af836128b0565b9250826130bf576130be61306a565b5b828206905092915050565b7f5468652075736572206973206e6f74206f757473696465000000000000000000600082015250565b6000613100601783612c0d565b915061310b826130ca565b602082019050919050565b6000602082019050818103600083015261312f816130f3565b9050919050565b7f5468652075736572206973206e6f7420696e7369646500000000000000000000600082015250565b600061316c601683612c0d565b915061317782613136565b602082019050919050565b6000602082019050818103600083015261319b8161315f565b9050919050565b7f4f776e61626c653a206e6577206f776e657220697320746865207a65726f206160008201527f6464726573730000000000000000000000000000000000000000000000000000602082015250565b60006131fe602683612c0d565b9150613209826131a2565b604082019050919050565b6000602082019050818103600083015261322d816131f1565b9050919050565b7f4f776e61626c653a2063616c6c6572206973206e6f7420746865206f776e6572600082015250565b600061326a602083612c0d565b915061327582613234565b602082019050919050565b600060208201905081810360008301526132998161325d565b9050919050565b7f4f7574206f662072616e67652061636365737320746f20757365720000000000600082015250565b60006132d6601b83612c0d565b91506132e1826132a0565b602082019050919050565b60006020820190508181036000830152613305816132c9565b9050919050565b7f54686973206973206e6f7420616e20696e74657276616c000000000000000000600082015250565b6000613342601783612c0d565b915061334d8261330c565b602082019050919050565b6000602082019050818103600083015261337181613335565b9050919050565b6000613383826128b0565b915061338e836128b0565b92508261339e5761339d61306a565b5b828204905092915050565b7f596f75277265206e6f7420746865206861726477617265000000000000000000600082015250565b60006133df601783612c0d565b91506133ea826133a9565b602082019050919050565b6000602082019050818103600083015261340e816133d2565b9050919050565b600060a08201905061342a60008301886129c7565b61343760208301876129c7565b61344460408301866129c7565b61345160608301856129f1565b61345e60808301846129f1565b9695505050505050565b6000815190506134778161296e565b92915050565b600060208284031215613493576134926127be565b5b60006134a184828501613468565b91505092915050565b60006040820190506134bf60008301856129f1565b6134cc60208301846129f1565b9392505050565b7f4661696c656420746f20706179206f6e20657869740000000000000000000000600082015250565b6000613509601583612c0d565b9150613514826134d3565b602082019050919050565b60006020820190508181036000830152613538816134fc565b905091905056fea2646970667358221220a3eb7b759b94de179bdfe715714f6614af330051e067d4f54e8c833a7041debd64736f6c63430008110033",
  "linkReferences": {},
  "deployedLinkReferences": {}
}